{
  "_format": "hh-sol-artifact-1",
  "contractName": "FundMe",
  "sourceName": "contracts/FundMe.sol",
  "abi": [
    {
      "inputs": [
        {
          "internalType": "address",
          "name": "_priceFeed",
          "type": "address"
        }
      ],
      "stateMutability": "nonpayable",
      "type": "constructor"
    },
    {
      "inputs": [],
      "name": "FundMe__NotOwner",
      "type": "error"
    },
    {
      "inputs": [],
      "name": "MINIMUM_USD",
      "outputs": [
        {
          "internalType": "uint256",
          "name": "",
          "type": "uint256"
        }
      ],
      "stateMutability": "view",
      "type": "function"
    },
    {
      "inputs": [
        {
          "internalType": "address",
          "name": "",
          "type": "address"
        }
      ],
      "name": "addressToAmountFunded",
      "outputs": [
        {
          "internalType": "uint256",
          "name": "",
          "type": "uint256"
        }
      ],
      "stateMutability": "view",
      "type": "function"
    },
    {
      "inputs": [],
      "name": "fund",
      "outputs": [],
      "stateMutability": "payable",
      "type": "function"
    },
    {
      "inputs": [
        {
          "internalType": "uint256",
          "name": "",
          "type": "uint256"
        }
      ],
      "name": "funders",
      "outputs": [
        {
          "internalType": "address",
          "name": "",
          "type": "address"
        }
      ],
      "stateMutability": "view",
      "type": "function"
    },
    {
      "inputs": [],
      "name": "i_owner",
      "outputs": [
        {
          "internalType": "address",
          "name": "",
          "type": "address"
        }
      ],
      "stateMutability": "view",
      "type": "function"
    },
    {
      "inputs": [],
      "name": "priceFeedAddress",
      "outputs": [
        {
          "internalType": "contract AggregatorV3Interface",
          "name": "",
          "type": "address"
        }
      ],
      "stateMutability": "view",
      "type": "function"
    },
    {
      "inputs": [],
      "name": "withdraw",
      "outputs": [],
      "stateMutability": "nonpayable",
      "type": "function"
    }
  ],
  "bytecode": "0x60a060405234801561001057600080fd5b50604051610e89380380610e898339818101604052810190610032919061010f565b806000806101000a81548173ffffffffffffffffffffffffffffffffffffffff021916908373ffffffffffffffffffffffffffffffffffffffff1602179055503373ffffffffffffffffffffffffffffffffffffffff1660808173ffffffffffffffffffffffffffffffffffffffff16815250505061013c565b600080fd5b600073ffffffffffffffffffffffffffffffffffffffff82169050919050565b60006100dc826100b1565b9050919050565b6100ec816100d1565b81146100f757600080fd5b50565b600081519050610109816100e3565b92915050565b600060208284031215610125576101246100ac565b5b6000610133848285016100fa565b91505092915050565b608051610d2b61015e6000396000818161019301526105200152610d2b6000f3fe6080604052600436106100705760003560e01c8063b60d42881161004e578063b60d4288146100f4578063dba6335f146100fe578063dc0d3dff14610129578063e0abca0b1461016657610070565b80633ccfd60b146100755780633e47d6f31461008c5780636b69a592146100c9575b600080fd5b34801561008157600080fd5b5061008a610191565b005b34801561009857600080fd5b506100b360048036038101906100ae9190610771565b6103d2565b6040516100c091906107b7565b60405180910390f35b3480156100d557600080fd5b506100de6103ea565b6040516100eb91906107b7565b60405180910390f35b6100fc6103f7565b005b34801561010a57600080fd5b5061011361051e565b60405161012091906107e1565b60405180910390f35b34801561013557600080fd5b50610150600480360381019061014b9190610828565b610542565b60405161015d91906107e1565b60405180910390f35b34801561017257600080fd5b5061017b610581565b60405161018891906108b4565b60405180910390f35b7f000000000000000000000000000000000000000000000000000000000000000073ffffffffffffffffffffffffffffffffffffffff163373ffffffffffffffffffffffffffffffffffffffff1614610216576040517f579610db00000000000000000000000000000000000000000000000000000000815260040160405180910390fd5b60005b6001805490508110156102c25760006001828154811061023c5761023b6108cf565b5b9060005260206000200160009054906101000a900473ffffffffffffffffffffffffffffffffffffffff1690506000600260008373ffffffffffffffffffffffffffffffffffffffff1673ffffffffffffffffffffffffffffffffffffffff168152602001908152602001600020819055505080806102ba9061092d565b915050610219565b50600067ffffffffffffffff8111156102de576102dd610975565b5b60405190808252806020026020018201604052801561030c5781602001602082028036833780820191505090505b5060019080519060200190610322929190610667565b5060003373ffffffffffffffffffffffffffffffffffffffff1647604051610349906109d5565b60006040518083038185875af1925050503d8060008114610386576040519150601f19603f3d011682016040523d82523d6000602084013e61038b565b606091505b50509050806103cf576040517f08c379a00000000000000000000000000000000000000000000000000000000081526004016103c690610a47565b60405180910390fd5b50565b60026020528060005260406000206000915090505481565b6802b5e3af16b188000081565b6802b5e3af16b188000061043460008054906101000a900473ffffffffffffffffffffffffffffffffffffffff16346105a590919063ffffffff16565b1015610475576040517f08c379a000000000000000000000000000000000000000000000000000000000815260040161046c90610ab3565b60405180910390fd5b6001339080600181540180825580915050600190039060005260206000200160009091909190916101000a81548173ffffffffffffffffffffffffffffffffffffffff021916908373ffffffffffffffffffffffffffffffffffffffff16021790555034600260003373ffffffffffffffffffffffffffffffffffffffff1673ffffffffffffffffffffffffffffffffffffffff16815260200190815260200160002081905550565b7f000000000000000000000000000000000000000000000000000000000000000081565b6001818154811061055257600080fd5b906000526020600020016000915054906101000a900473ffffffffffffffffffffffffffffffffffffffff1681565b60008054906101000a900473ffffffffffffffffffffffffffffffffffffffff1681565b6000670de0b6b3a76400006105b9836105d6565b846105c49190610ad3565b6105ce9190610b44565b905092915050565b6000808273ffffffffffffffffffffffffffffffffffffffff1663feaf968c6040518163ffffffff1660e01b815260040160a060405180830381865afa158015610624573d6000803e3d6000fd5b505050506040513d601f19601f820116820180604052508101906106489190610c02565b5050509150506402540be4008161065f9190610c7d565b915050919050565b8280548282559060005260206000209081019282156106e0579160200282015b828111156106df5782518260006101000a81548173ffffffffffffffffffffffffffffffffffffffff021916908373ffffffffffffffffffffffffffffffffffffffff16021790555091602001919060010190610687565b5b5090506106ed91906106f1565b5090565b5b8082111561070a5760008160009055506001016106f2565b5090565b600080fd5b600073ffffffffffffffffffffffffffffffffffffffff82169050919050565b600061073e82610713565b9050919050565b61074e81610733565b811461075957600080fd5b50565b60008135905061076b81610745565b92915050565b6000602082840312156107875761078661070e565b5b60006107958482850161075c565b91505092915050565b6000819050919050565b6107b18161079e565b82525050565b60006020820190506107cc60008301846107a8565b92915050565b6107db81610733565b82525050565b60006020820190506107f660008301846107d2565b92915050565b6108058161079e565b811461081057600080fd5b50565b600081359050610822816107fc565b92915050565b60006020828403121561083e5761083d61070e565b5b600061084c84828501610813565b91505092915050565b6000819050919050565b600061087a61087561087084610713565b610855565b610713565b9050919050565b600061088c8261085f565b9050919050565b600061089e82610881565b9050919050565b6108ae81610893565b82525050565b60006020820190506108c960008301846108a5565b92915050565b7f4e487b7100000000000000000000000000000000000000000000000000000000600052603260045260246000fd5b7f4e487b7100000000000000000000000000000000000000000000000000000000600052601160045260246000fd5b60006109388261079e565b91507fffffffffffffffffffffffffffffffffffffffffffffffffffffffffffffffff820361096a576109696108fe565b5b600182019050919050565b7f4e487b7100000000000000000000000000000000000000000000000000000000600052604160045260246000fd5b600081905092915050565b50565b60006109bf6000836109a4565b91506109ca826109af565b600082019050919050565b60006109e0826109b2565b9150819050919050565b600082825260208201905092915050565b7f6572726f72000000000000000000000000000000000000000000000000000000600082015250565b6000610a316005836109ea565b9150610a3c826109fb565b602082019050919050565b60006020820190508181036000830152610a6081610a24565b9050919050565b7f4469646e27742053656e6420456e6f7567682045746800000000000000000000600082015250565b6000610a9d6016836109ea565b9150610aa882610a67565b602082019050919050565b60006020820190508181036000830152610acc81610a90565b9050919050565b6000610ade8261079e565b9150610ae98361079e565b9250828202610af78161079e565b91508282048414831517610b0e57610b0d6108fe565b5b5092915050565b7f4e487b7100000000000000000000000000000000000000000000000000000000600052601260045260246000fd5b6000610b4f8261079e565b9150610b5a8361079e565b925082610b6a57610b69610b15565b5b828204905092915050565b600069ffffffffffffffffffff82169050919050565b610b9481610b75565b8114610b9f57600080fd5b50565b600081519050610bb181610b8b565b92915050565b6000819050919050565b610bca81610bb7565b8114610bd557600080fd5b50565b600081519050610be781610bc1565b92915050565b600081519050610bfc816107fc565b92915050565b600080600080600060a08688031215610c1e57610c1d61070e565b5b6000610c2c88828901610ba2565b9550506020610c3d88828901610bd8565b9450506040610c4e88828901610bed565b9350506060610c5f88828901610bed565b9250506080610c7088828901610ba2565b9150509295509295909350565b6000610c8882610bb7565b9150610c9383610bb7565b9250828202610ca181610bb7565b91507f80000000000000000000000000000000000000000000000000000000000000008414600084121615610cd957610cd86108fe565b5b8282058414831517610cee57610ced6108fe565b5b509291505056fea264697066735822122085e44251b3e2d448f433bf0c4770475e4a5d88cd7947450af08e45dc863b8d6964736f6c63430008120033",
  "linkReferences": {},
  "deployedLinkReferences": {}
}