{
  "_format": "hh-sol-artifact-1",
  "contractName": "FundMe",
  "sourceName": "contracts/FundMe.sol",
  "abi": [
    {
      "inputs": [
        {
          "internalType": "address",
          "name": "_priceFeed",
          "type": "address"
        }
      ],
      "stateMutability": "nonpayable",
      "type": "constructor"
    },
    {
      "inputs": [],
      "name": "FundMe__NotOwner",
      "type": "error"
    },
    {
      "inputs": [],
      "name": "MINIMUM_USD",
      "outputs": [
        {
          "internalType": "uint256",
          "name": "",
          "type": "uint256"
        }
      ],
      "stateMutability": "view",
      "type": "function"
    },
    {
      "inputs": [
        {
          "internalType": "address",
          "name": "",
          "type": "address"
        }
      ],
      "name": "addressToAmountFunded",
      "outputs": [
        {
          "internalType": "uint256",
          "name": "",
          "type": "uint256"
        }
      ],
      "stateMutability": "view",
      "type": "function"
    },
    {
      "inputs": [],
      "name": "fund",
      "outputs": [],
      "stateMutability": "payable",
      "type": "function"
    },
    {
      "inputs": [
        {
          "internalType": "uint256",
          "name": "",
          "type": "uint256"
        }
      ],
      "name": "funders",
      "outputs": [
        {
          "internalType": "address",
          "name": "",
          "type": "address"
        }
      ],
      "stateMutability": "view",
      "type": "function"
    },
    {
      "inputs": [],
      "name": "i_owner",
      "outputs": [
        {
          "internalType": "address",
          "name": "",
          "type": "address"
        }
      ],
      "stateMutability": "view",
      "type": "function"
    },
    {
      "inputs": [],
      "name": "priceFeedAddress",
      "outputs": [
        {
          "internalType": "contract AggregatorV3Interface",
          "name": "",
          "type": "address"
        }
      ],
      "stateMutability": "view",
      "type": "function"
    },
    {
      "inputs": [],
      "name": "withdraw",
      "outputs": [],
      "stateMutability": "nonpayable",
      "type": "function"
    }
  ],
  "bytecode": "0x60a06040523480156200001157600080fd5b50604051620011f2380380620011f2833981810160405281019062000037919062000173565b62000053672f43101b906ade4460c01b6200010660201b60201c565b6200006f672dd1903aad58e10c60c01b6200010660201b60201c565b806000806101000a81548173ffffffffffffffffffffffffffffffffffffffff021916908373ffffffffffffffffffffffffffffffffffffffff160217905550620000cb6750a2b757ca550a3260c01b6200010660201b60201c565b3373ffffffffffffffffffffffffffffffffffffffff1660808173ffffffffffffffffffffffffffffffffffffffff168152505050620001a5565b50565b600080fd5b600073ffffffffffffffffffffffffffffffffffffffff82169050919050565b60006200013b826200010e565b9050919050565b6200014d816200012e565b81146200015957600080fd5b50565b6000815190506200016d8162000142565b92915050565b6000602082840312156200018c576200018b62000109565b5b60006200019c848285016200015c565b91505092915050565b60805161102a620001c8600039600081816101e30152610778015261102a6000f3fe6080604052600436106100705760003560e01c8063b60d42881161004e578063b60d4288146100f4578063dba6335f146100fe578063dc0d3dff14610129578063e0abca0b1461016657610070565b80633ccfd60b146100755780633e47d6f31461008c5780636b69a592146100c9575b600080fd5b34801561008157600080fd5b5061008a610191565b005b34801561009857600080fd5b506100b360048036038101906100ae9190610a70565b61058a565b6040516100c09190610ab6565b60405180910390f35b3480156100d557600080fd5b506100de6105a2565b6040516100eb9190610ab6565b60405180910390f35b6100fc6105af565b005b34801561010a57600080fd5b50610113610776565b6040516101209190610ae0565b60405180910390f35b34801561013557600080fd5b50610150600480360381019061014b9190610b27565b61079a565b60405161015d9190610ae0565b60405180910390f35b34801561017257600080fd5b5061017b6107d9565b6040516101889190610bb3565b60405180910390f35b6101a567355ed6f859bb283c60c01b6107fd565b6101b9670cdac34df2a4147460c01b6107fd565b6101cd67741e193844bfce9d60c01b6107fd565b6101e1672ec6695d9bb5f5b060c01b6107fd565b7f000000000000000000000000000000000000000000000000000000000000000073ffffffffffffffffffffffffffffffffffffffff163373ffffffffffffffffffffffffffffffffffffffff161461028e576102486711d8902946543c4a60c01b6107fd565b61025c675715b4b4d04ffe9760c01b6107fd565b6040517f579610db00000000000000000000000000000000000000000000000000000000815260040160405180910390fd5b6102a2675962f8be7eb1037860c01b6107fd565b6102b667f6d9c087b3afa58c60c01b6107fd565b6102ca67034ec1c572ddce4e60c01b6107fd565b6102de67c7cd99dafa11726a60c01b6107fd565b6102f267d7b370cfb3cb6c6360c01b6107fd565b610306673a218aee80147e5d60c01b6107fd565b60005b6001805490508110156103ee5761032a67f12c70b954de1d1660c01b6107fd565b61033e670abd9fe0a863867460c01b6107fd565b60006001828154811061035457610353610bce565b5b9060005260206000200160009054906101000a900473ffffffffffffffffffffffffffffffffffffffff1690506103956721d2f5860b1164b360c01b6107fd565b6000600260008373ffffffffffffffffffffffffffffffffffffffff1673ffffffffffffffffffffffffffffffffffffffff168152602001908152602001600020819055505080806103e690610c2c565b915050610309565b5061040367b6128fbce4ddf5a560c01b6107fd565b600067ffffffffffffffff81111561041e5761041d610c74565b5b60405190808252806020026020018201604052801561044c5781602001602082028036833780820191505090505b5060019080519060200190610462929190610966565b506104776758157dab775458e960c01b6107fd565b61048b674d020b8f80e0d0bd60c01b6107fd565b60003373ffffffffffffffffffffffffffffffffffffffff16476040516104b190610cd4565b60006040518083038185875af1925050503d80600081146104ee576040519150601f19603f3d011682016040523d82523d6000602084013e6104f3565b606091505b5050905061050b67f3edb5c98d3ce6eb60c01b6107fd565b61051f6719ee654660ff8ba960c01b6107fd565b61053367c3cc0c81d3d4504860c01b6107fd565b80610573576040517f08c379a000000000000000000000000000000000000000000000000000000000815260040161056a90610d46565b60405180910390fd5b610587675db6f241446326ea60c01b6107fd565b50565b60026020528060005260406000206000915090505481565b6802b5e3af16b188000081565b6105c3671e0e767e2a15346760c01b6107fd565b6105d767c6fa085e6d34e3f060c01b6107fd565b6105eb67c6b52884680f38cf60c01b6107fd565b6105ff678d578cc41835408860c01b6107fd565b6802b5e3af16b188000061063c60008054906101000a900473ffffffffffffffffffffffffffffffffffffffff163461080090919063ffffffff16565b101561067d576040517f08c379a000000000000000000000000000000000000000000000000000000000815260040161067490610db2565b60405180910390fd5b61069167b7f2956fa4031f0a60c01b6107fd565b6106a567c8d1a23e5c413e2d60c01b6107fd565b6106b967dbae31149cf0085a60c01b6107fd565b6001339080600181540180825580915050600190039060005260206000200160009091909190916101000a81548173ffffffffffffffffffffffffffffffffffffffff021916908373ffffffffffffffffffffffffffffffffffffffff1602179055506107306766539b0e7eeeaaa460c01b6107fd565b34600260003373ffffffffffffffffffffffffffffffffffffffff1673ffffffffffffffffffffffffffffffffffffffff16815260200190815260200160002081905550565b7f000000000000000000000000000000000000000000000000000000000000000081565b600181815481106107aa57600080fd5b906000526020600020016000915054906101000a900473ffffffffffffffffffffffffffffffffffffffff1681565b60008054906101000a900473ffffffffffffffffffffffffffffffffffffffff1681565b50565b60006108166777df8510c0fb55ef60c01b61086d565b61082a6726f101900924bbdd60c01b61086d565b61083e67fd88259337ba275560c01b61086d565b670de0b6b3a764000061085083610870565b8461085b9190610dd2565b6108659190610e43565b905092915050565b50565b60006108866726a5df4d090fc85b60c01b61086d565b61089a67f1141e5f6d79d84260c01b61086d565b6108ae67301431c6a55fbe1460c01b61086d565b60008273ffffffffffffffffffffffffffffffffffffffff1663feaf968c6040518163ffffffff1660e01b815260040160a060405180830381865afa1580156108fb573d6000803e3d6000fd5b505050506040513d601f19601f8201168201806040525081019061091f9190610f01565b50505091505061093967a6437d9df55fa6b560c01b61086d565b61094d67f22e670553ba50b260c01b61086d565b6402540be4008161095e9190610f7c565b915050919050565b8280548282559060005260206000209081019282156109df579160200282015b828111156109de5782518260006101000a81548173ffffffffffffffffffffffffffffffffffffffff021916908373ffffffffffffffffffffffffffffffffffffffff16021790555091602001919060010190610986565b5b5090506109ec91906109f0565b5090565b5b80821115610a095760008160009055506001016109f1565b5090565b600080fd5b600073ffffffffffffffffffffffffffffffffffffffff82169050919050565b6000610a3d82610a12565b9050919050565b610a4d81610a32565b8114610a5857600080fd5b50565b600081359050610a6a81610a44565b92915050565b600060208284031215610a8657610a85610a0d565b5b6000610a9484828501610a5b565b91505092915050565b6000819050919050565b610ab081610a9d565b82525050565b6000602082019050610acb6000830184610aa7565b92915050565b610ada81610a32565b82525050565b6000602082019050610af56000830184610ad1565b92915050565b610b0481610a9d565b8114610b0f57600080fd5b50565b600081359050610b2181610afb565b92915050565b600060208284031215610b3d57610b3c610a0d565b5b6000610b4b84828501610b12565b91505092915050565b6000819050919050565b6000610b79610b74610b6f84610a12565b610b54565b610a12565b9050919050565b6000610b8b82610b5e565b9050919050565b6000610b9d82610b80565b9050919050565b610bad81610b92565b82525050565b6000602082019050610bc86000830184610ba4565b92915050565b7f4e487b7100000000000000000000000000000000000000000000000000000000600052603260045260246000fd5b7f4e487b7100000000000000000000000000000000000000000000000000000000600052601160045260246000fd5b6000610c3782610a9d565b91507fffffffffffffffffffffffffffffffffffffffffffffffffffffffffffffffff8203610c6957610c68610bfd565b5b600182019050919050565b7f4e487b7100000000000000000000000000000000000000000000000000000000600052604160045260246000fd5b600081905092915050565b50565b6000610cbe600083610ca3565b9150610cc982610cae565b600082019050919050565b6000610cdf82610cb1565b9150819050919050565b600082825260208201905092915050565b7f6572726f72000000000000000000000000000000000000000000000000000000600082015250565b6000610d30600583610ce9565b9150610d3b82610cfa565b602082019050919050565b60006020820190508181036000830152610d5f81610d23565b9050919050565b7f4469646e27742053656e6420456e6f7567682045746800000000000000000000600082015250565b6000610d9c601683610ce9565b9150610da782610d66565b602082019050919050565b60006020820190508181036000830152610dcb81610d8f565b9050919050565b6000610ddd82610a9d565b9150610de883610a9d565b9250828202610df681610a9d565b91508282048414831517610e0d57610e0c610bfd565b5b5092915050565b7f4e487b7100000000000000000000000000000000000000000000000000000000600052601260045260246000fd5b6000610e4e82610a9d565b9150610e5983610a9d565b925082610e6957610e68610e14565b5b828204905092915050565b600069ffffffffffffffffffff82169050919050565b610e9381610e74565b8114610e9e57600080fd5b50565b600081519050610eb081610e8a565b92915050565b6000819050919050565b610ec981610eb6565b8114610ed457600080fd5b50565b600081519050610ee681610ec0565b92915050565b600081519050610efb81610afb565b92915050565b600080600080600060a08688031215610f1d57610f1c610a0d565b5b6000610f2b88828901610ea1565b9550506020610f3c88828901610ed7565b9450506040610f4d88828901610eec565b9350506060610f5e88828901610eec565b9250506080610f6f88828901610ea1565b9150509295509295909350565b6000610f8782610eb6565b9150610f9283610eb6565b9250828202610fa081610eb6565b91507f80000000000000000000000000000000000000000000000000000000000000008414600084121615610fd857610fd7610bfd565b5b8282058414831517610fed57610fec610bfd565b5b509291505056fea26469706673582212201a81c14e9468a881940577d55c80d2589f72cead335c28a151a7c677d30fd36064736f6c63430008120033",
  "linkReferences": {},
  "deployedLinkReferences": {}
}