{
  "_format": "hh-sol-artifact-1",
  "contractName": "FundMe",
  "sourceName": "contracts/FundMe.sol",
  "abi": [
    {
      "inputs": [
        {
          "internalType": "address",
          "name": "_priceFeed",
          "type": "address"
        }
      ],
      "stateMutability": "nonpayable",
      "type": "constructor"
    },
    {
      "inputs": [],
      "name": "FundMe__NotOwner",
      "type": "error"
    },
    {
      "inputs": [],
      "name": "MINIMUM_USD",
      "outputs": [
        {
          "internalType": "uint256",
          "name": "",
          "type": "uint256"
        }
      ],
      "stateMutability": "view",
      "type": "function"
    },
    {
      "inputs": [],
      "name": "cheaperWithdraw",
      "outputs": [],
      "stateMutability": "payable",
      "type": "function"
    },
    {
      "inputs": [],
      "name": "fund",
      "outputs": [],
      "stateMutability": "payable",
      "type": "function"
    },
    {
      "inputs": [
        {
          "internalType": "address",
          "name": "_funderAddress",
          "type": "address"
        }
      ],
      "name": "getAddressToAmountFunded",
      "outputs": [
        {
          "internalType": "uint256",
          "name": "",
          "type": "uint256"
        }
      ],
      "stateMutability": "view",
      "type": "function"
    },
    {
      "inputs": [
        {
          "internalType": "uint256",
          "name": "_index",
          "type": "uint256"
        }
      ],
      "name": "getFunders",
      "outputs": [
        {
          "internalType": "address",
          "name": "",
          "type": "address"
        }
      ],
      "stateMutability": "view",
      "type": "function"
    },
    {
      "inputs": [],
      "name": "getPriceFeedAddress",
      "outputs": [
        {
          "internalType": "contract AggregatorV3Interface",
          "name": "",
          "type": "address"
        }
      ],
      "stateMutability": "view",
      "type": "function"
    },
    {
      "inputs": [],
      "name": "i_owner",
      "outputs": [
        {
          "internalType": "address",
          "name": "",
          "type": "address"
        }
      ],
      "stateMutability": "view",
      "type": "function"
    }
  ],
  "bytecode": "0x60a06040523480156200001157600080fd5b506040516200136238038062001362833981810160405281019062000037919062000173565b6200005367acd236198f5988b260c01b6200010660201b60201c565b6200006f67387746b475a150f660c01b6200010660201b60201c565b806000806101000a81548173ffffffffffffffffffffffffffffffffffffffff021916908373ffffffffffffffffffffffffffffffffffffffff160217905550620000cb6728978b7763cefce860c01b6200010660201b60201c565b3373ffffffffffffffffffffffffffffffffffffffff1660808173ffffffffffffffffffffffffffffffffffffffff168152505050620001a5565b50565b600080fd5b600073ffffffffffffffffffffffffffffffffffffffff82169050919050565b60006200013b826200010e565b9050919050565b6200014d816200012e565b81146200015957600080fd5b50565b6000815190506200016d8162000142565b92915050565b6000602082840312156200018c576200018b62000109565b5b60006200019c848285016200015c565b91505092915050565b60805161119a620001c860003960008181610517015261094c015261119a6000f3fe6080604052600436106100705760003560e01c80636b69a5921161004e5780636b69a5921461011a578063b60d428814610145578063be2693f01461014f578063dba6335f1461015957610070565b80630343fb25146100755780630f0f30b2146100b25780633a7b6c74146100dd575b600080fd5b34801561008157600080fd5b5061009c60048036038101906100979190610be0565b610184565b6040516100a99190610c26565b60405180910390f35b3480156100be57600080fd5b506100c7610209565b6040516100d49190610ca0565b60405180910390f35b3480156100e957600080fd5b5061010460048036038101906100ff9190610ce7565b61026d565b6040516101119190610d23565b60405180910390f35b34801561012657600080fd5b5061012f6102f1565b60405161013c9190610c26565b60405180910390f35b61014d6102fe565b005b6101576104c5565b005b34801561016557600080fd5b5061016e61094a565b60405161017b9190610d23565b60405180910390f35b600061019a6719ee654660ff8ba960c01b61096e565b6101ae67c3cc0c81d3d4504860c01b61096e565b6101c2675db6f241446326ea60c01b61096e565b600260008373ffffffffffffffffffffffffffffffffffffffff1673ffffffffffffffffffffffffffffffffffffffff168152602001908152602001600020549050919050565b600061021f670abd9fe0a863867460c01b61096e565b6102336721d2f5860b1164b360c01b61096e565b61024767b6128fbce4ddf5a560c01b61096e565b60008054906101000a900473ffffffffffffffffffffffffffffffffffffffff16905090565b60006102836758157dab775458e960c01b61096e565b610297674d020b8f80e0d0bd60c01b61096e565b6102ab67f3edb5c98d3ce6eb60c01b61096e565b600182815481106102bf576102be610d3e565b5b9060005260206000200160009054906101000a900473ffffffffffffffffffffffffffffffffffffffff169050919050565b6802b5e3af16b188000081565b6103126742b59e18971b7d7260c01b61096e565b610326670cdac34df2a4147460c01b61096e565b61033a67741e193844bfce9d60c01b61096e565b61034e672ec6695d9bb5f5b060c01b61096e565b6802b5e3af16b188000061038b60008054906101000a900473ffffffffffffffffffffffffffffffffffffffff163461097190919063ffffffff16565b10156103cc576040517f08c379a00000000000000000000000000000000000000000000000000000000081526004016103c390610dca565b60405180910390fd5b6103e06711d8902946543c4a60c01b61096e565b6103f4675715b4b4d04ffe9760c01b61096e565b610408675962f8be7eb1037860c01b61096e565b6001339080600181540180825580915050600190039060005260206000200160009091909190916101000a81548173ffffffffffffffffffffffffffffffffffffffff021916908373ffffffffffffffffffffffffffffffffffffffff16021790555061047f67f6d9c087b3afa58c60c01b61096e565b34600260003373ffffffffffffffffffffffffffffffffffffffff1673ffffffffffffffffffffffffffffffffffffffff16815260200190815260200160002081905550565b6104d9672e477a31a05ef38c60c01b61096e565b6104ed6782e9bfe609fd5d7160c01b61096e565b610501676e57a5db2259510a60c01b61096e565b6105156791699b12ffce4d8160c01b61096e565b7f000000000000000000000000000000000000000000000000000000000000000073ffffffffffffffffffffffffffffffffffffffff163373ffffffffffffffffffffffffffffffffffffffff16146105c25761057c67f06bd0b3f934eb3360c01b61096e565b61059067214cfe022a97ab0760c01b61096e565b6040517f579610db00000000000000000000000000000000000000000000000000000000815260040160405180910390fd5b6105d667539913bf7338d9bd60c01b61096e565b6105ea678694afef9210678460c01b61096e565b6105fe673e90d2f471d408a360c01b61096e565b6106126750a2b757ca550a3260c01b61096e565b610626671e0e767e2a15346760c01b61096e565b61063a67c6fa085e6d34e3f060c01b61096e565b600060018054806020026020016040519081016040528092919081815260200182805480156106be57602002820191906000526020600020905b8160009054906101000a900473ffffffffffffffffffffffffffffffffffffffff1673ffffffffffffffffffffffffffffffffffffffff1681526020019060010190808311610674575b505050505090506106d967c6b52884680f38cf60c01b61096e565b6106ed678d578cc41835408860c01b61096e565b60005b81518110156107ad5761070d67b7f2956fa4031f0a60c01b61096e565b61072167c8d1a23e5c413e2d60c01b61096e565b600082828151811061073657610735610d3e565b5b6020026020010151905061075467dbae31149cf0085a60c01b61096e565b6000600260008373ffffffffffffffffffffffffffffffffffffffff1673ffffffffffffffffffffffffffffffffffffffff168152602001908152602001600020819055505080806107a590610e19565b9150506106f0565b506107c26766539b0e7eeeaaa460c01b61096e565b600067ffffffffffffffff8111156107dd576107dc610e61565b5b60405190808252806020026020018201604052801561080b5781602001602082028036833780820191505090505b5060019080519060200190610821929190610ad6565b506108366793af07fb230ae68e60c01b61096e565b61084a671167d229dc6ab5b060c01b61096e565b60003373ffffffffffffffffffffffffffffffffffffffff164760405161087090610ec1565b60006040518083038185875af1925050503d80600081146108ad576040519150601f19603f3d011682016040523d82523d6000602084013e6108b2565b606091505b505090506108ca67c7cd99dafa11726a60c01b61096e565b6108de67d7b370cfb3cb6c6360c01b61096e565b6108f2673a218aee80147e5d60c01b61096e565b80610932576040517f08c379a000000000000000000000000000000000000000000000000000000000815260040161092990610f22565b60405180910390fd5b61094667f12c70b954de1d1660c01b61096e565b5050565b7f000000000000000000000000000000000000000000000000000000000000000081565b50565b60006109876716f51f373271b11d60c01b6109dd565b61099b676049c86df4474ab660c01b6109dd565b6109ae66bb8624318950dc60c01b6109dd565b670de0b6b3a76400006109c0836109e0565b846109cb9190610f42565b6109d59190610fb3565b905092915050565b50565b60006109f667e5b7542c621ef8eb60c01b6109dd565b610a0a678d9fe2f18427a2ed60c01b6109dd565b610a1e67bced88a40232139560c01b6109dd565b60008273ffffffffffffffffffffffffffffffffffffffff1663feaf968c6040518163ffffffff1660e01b815260040160a060405180830381865afa158015610a6b573d6000803e3d6000fd5b505050506040513d601f19601f82011682018060405250810190610a8f9190611071565b505050915050610aa967cce9758aeac61edb60c01b6109dd565b610abd6729bb9bd42fd74ee360c01b6109dd565b6402540be40081610ace91906110ec565b915050919050565b828054828255906000526020600020908101928215610b4f579160200282015b82811115610b4e5782518260006101000a81548173ffffffffffffffffffffffffffffffffffffffff021916908373ffffffffffffffffffffffffffffffffffffffff16021790555091602001919060010190610af6565b5b509050610b5c9190610b60565b5090565b5b80821115610b79576000816000905550600101610b61565b5090565b600080fd5b600073ffffffffffffffffffffffffffffffffffffffff82169050919050565b6000610bad82610b82565b9050919050565b610bbd81610ba2565b8114610bc857600080fd5b50565b600081359050610bda81610bb4565b92915050565b600060208284031215610bf657610bf5610b7d565b5b6000610c0484828501610bcb565b91505092915050565b6000819050919050565b610c2081610c0d565b82525050565b6000602082019050610c3b6000830184610c17565b92915050565b6000819050919050565b6000610c66610c61610c5c84610b82565b610c41565b610b82565b9050919050565b6000610c7882610c4b565b9050919050565b6000610c8a82610c6d565b9050919050565b610c9a81610c7f565b82525050565b6000602082019050610cb56000830184610c91565b92915050565b610cc481610c0d565b8114610ccf57600080fd5b50565b600081359050610ce181610cbb565b92915050565b600060208284031215610cfd57610cfc610b7d565b5b6000610d0b84828501610cd2565b91505092915050565b610d1d81610ba2565b82525050565b6000602082019050610d386000830184610d14565b92915050565b7f4e487b7100000000000000000000000000000000000000000000000000000000600052603260045260246000fd5b600082825260208201905092915050565b7f4469646e27742053656e6420456e6f7567682045746800000000000000000000600082015250565b6000610db4601683610d6d565b9150610dbf82610d7e565b602082019050919050565b60006020820190508181036000830152610de381610da7565b9050919050565b7f4e487b7100000000000000000000000000000000000000000000000000000000600052601160045260246000fd5b6000610e2482610c0d565b91507fffffffffffffffffffffffffffffffffffffffffffffffffffffffffffffffff8203610e5657610e55610dea565b5b600182019050919050565b7f4e487b7100000000000000000000000000000000000000000000000000000000600052604160045260246000fd5b600081905092915050565b50565b6000610eab600083610e90565b9150610eb682610e9b565b600082019050919050565b6000610ecc82610e9e565b9150819050919050565b7f6572726f72000000000000000000000000000000000000000000000000000000600082015250565b6000610f0c600583610d6d565b9150610f1782610ed6565b602082019050919050565b60006020820190508181036000830152610f3b81610eff565b9050919050565b6000610f4d82610c0d565b9150610f5883610c0d565b9250828202610f6681610c0d565b91508282048414831517610f7d57610f7c610dea565b5b5092915050565b7f4e487b7100000000000000000000000000000000000000000000000000000000600052601260045260246000fd5b6000610fbe82610c0d565b9150610fc983610c0d565b925082610fd957610fd8610f84565b5b828204905092915050565b600069ffffffffffffffffffff82169050919050565b61100381610fe4565b811461100e57600080fd5b50565b60008151905061102081610ffa565b92915050565b6000819050919050565b61103981611026565b811461104457600080fd5b50565b60008151905061105681611030565b92915050565b60008151905061106b81610cbb565b92915050565b600080600080600060a0868803121561108d5761108c610b7d565b5b600061109b88828901611011565b95505060206110ac88828901611047565b94505060406110bd8882890161105c565b93505060606110ce8882890161105c565b92505060806110df88828901611011565b9150509295509295909350565b60006110f782611026565b915061110283611026565b925082820261111081611026565b91507f8000000000000000000000000000000000000000000000000000000000000000841460008412161561114857611147610dea565b5b828205841483151761115d5761115c610dea565b5b509291505056fea26469706673582212204e45df411a30ad981f86f29ac90ba9e02ab8997cf7e087f31ce3c622d17e37c064736f6c63430008120033",
  "linkReferences": {},
  "deployedLinkReferences": {}
}