{
  "_format": "hh-sol-artifact-1",
  "contractName": "FundMe",
  "sourceName": "contracts/FundMe.sol",
  "abi": [
    {
      "inputs": [
        {
          "internalType": "address",
          "name": "_priceFeed",
          "type": "address"
        }
      ],
      "stateMutability": "nonpayable",
      "type": "constructor"
    },
    {
      "inputs": [],
      "name": "FundMe__NotOwner",
      "type": "error"
    },
    {
      "inputs": [],
      "name": "MINIMUM_USD",
      "outputs": [
        {
          "internalType": "uint256",
          "name": "",
          "type": "uint256"
        }
      ],
      "stateMutability": "view",
      "type": "function"
    },
    {
      "inputs": [],
      "name": "cheaperWithdraw",
      "outputs": [],
      "stateMutability": "payable",
      "type": "function"
    },
    {
      "inputs": [],
      "name": "fund",
      "outputs": [],
      "stateMutability": "payable",
      "type": "function"
    },
    {
      "inputs": [],
      "name": "i_owner",
      "outputs": [
        {
          "internalType": "address",
          "name": "",
          "type": "address"
        }
      ],
      "stateMutability": "view",
      "type": "function"
    },
    {
      "inputs": [
        {
          "internalType": "address",
          "name": "",
          "type": "address"
        }
      ],
      "name": "s_addressToAmountFunded",
      "outputs": [
        {
          "internalType": "uint256",
          "name": "",
          "type": "uint256"
        }
      ],
      "stateMutability": "view",
      "type": "function"
    },
    {
      "inputs": [
        {
          "internalType": "uint256",
          "name": "",
          "type": "uint256"
        }
      ],
      "name": "s_funders",
      "outputs": [
        {
          "internalType": "address",
          "name": "",
          "type": "address"
        }
      ],
      "stateMutability": "view",
      "type": "function"
    },
    {
      "inputs": [],
      "name": "s_priceFeedAddress",
      "outputs": [
        {
          "internalType": "contract AggregatorV3Interface",
          "name": "",
          "type": "address"
        }
      ],
      "stateMutability": "view",
      "type": "function"
    },
    {
      "inputs": [],
      "name": "withdraw",
      "outputs": [],
      "stateMutability": "nonpayable",
      "type": "function"
    }
  ],
  "bytecode": "0x60a06040523480156200001157600080fd5b506040516200115d3803806200115d83398181016040528101906200003791906200011c565b806000806101000a81548173ffffffffffffffffffffffffffffffffffffffff021916908373ffffffffffffffffffffffffffffffffffffffff1602179055503373ffffffffffffffffffffffffffffffffffffffff1660808173ffffffffffffffffffffffffffffffffffffffff1681525050506200014e565b600080fd5b600073ffffffffffffffffffffffffffffffffffffffff82169050919050565b6000620000e482620000b7565b9050919050565b620000f681620000d7565b81146200010257600080fd5b50565b6000815190506200011681620000eb565b92915050565b600060208284031215620001355762000134620000b2565b5b6000620001458482850162000105565b91505092915050565b608051610fe562000178600039600081816101e401528181610598015261083d0152610fe56000f3fe60806040526004361061007b5760003560e01c80636b69a5921161004e5780636b69a5921461013c578063b60d428814610167578063be2693f014610171578063dba6335f1461017b5761007b565b806318cb2c28146100805780631bf6132d146100ab5780633ccfd60b146100e857806354861af7146100ff575b600080fd5b34801561008c57600080fd5b506100956101a6565b6040516100a29190610a47565b60405180910390f35b3480156100b757600080fd5b506100d260048036038101906100cd9190610aa5565b6101ca565b6040516100df9190610aeb565b60405180910390f35b3480156100f457600080fd5b506100fd6101e2565b005b34801561010b57600080fd5b5061012660048036038101906101219190610b32565b610423565b6040516101339190610b6e565b60405180910390f35b34801561014857600080fd5b50610151610462565b60405161015e9190610aeb565b60405180910390f35b61016f61046f565b005b610179610596565b005b34801561018757600080fd5b5061019061083b565b60405161019d9190610b6e565b60405180910390f35b60008054906101000a900473ffffffffffffffffffffffffffffffffffffffff1681565b60026020528060005260406000206000915090505481565b7f000000000000000000000000000000000000000000000000000000000000000073ffffffffffffffffffffffffffffffffffffffff163373ffffffffffffffffffffffffffffffffffffffff1614610267576040517f579610db00000000000000000000000000000000000000000000000000000000815260040160405180910390fd5b60005b6001805490508110156103135760006001828154811061028d5761028c610b89565b5b9060005260206000200160009054906101000a900473ffffffffffffffffffffffffffffffffffffffff1690506000600260008373ffffffffffffffffffffffffffffffffffffffff1673ffffffffffffffffffffffffffffffffffffffff1681526020019081526020016000208190555050808061030b90610be7565b91505061026a565b50600067ffffffffffffffff81111561032f5761032e610c2f565b5b60405190808252806020026020018201604052801561035d5781602001602082028036833780820191505090505b5060019080519060200190610373929190610921565b5060003373ffffffffffffffffffffffffffffffffffffffff164760405161039a90610c8f565b60006040518083038185875af1925050503d80600081146103d7576040519150601f19603f3d011682016040523d82523d6000602084013e6103dc565b606091505b5050905080610420576040517f08c379a000000000000000000000000000000000000000000000000000000000815260040161041790610d01565b60405180910390fd5b50565b6001818154811061043357600080fd5b906000526020600020016000915054906101000a900473ffffffffffffffffffffffffffffffffffffffff1681565b6802b5e3af16b188000081565b6802b5e3af16b18800006104ac60008054906101000a900473ffffffffffffffffffffffffffffffffffffffff163461085f90919063ffffffff16565b10156104ed576040517f08c379a00000000000000000000000000000000000000000000000000000000081526004016104e490610d6d565b60405180910390fd5b6001339080600181540180825580915050600190039060005260206000200160009091909190916101000a81548173ffffffffffffffffffffffffffffffffffffffff021916908373ffffffffffffffffffffffffffffffffffffffff16021790555034600260003373ffffffffffffffffffffffffffffffffffffffff1673ffffffffffffffffffffffffffffffffffffffff16815260200190815260200160002081905550565b7f000000000000000000000000000000000000000000000000000000000000000073ffffffffffffffffffffffffffffffffffffffff163373ffffffffffffffffffffffffffffffffffffffff161461061b576040517f579610db00000000000000000000000000000000000000000000000000000000815260040160405180910390fd5b6000600180548060200260200160405190810160405280929190818152602001828054801561069f57602002820191906000526020600020905b8160009054906101000a900473ffffffffffffffffffffffffffffffffffffffff1673ffffffffffffffffffffffffffffffffffffffff1681526020019060010190808311610655575b5050505050905060005b815181101561072a5760008282815181106106c7576106c6610b89565b5b602002602001015190506000600260008373ffffffffffffffffffffffffffffffffffffffff1673ffffffffffffffffffffffffffffffffffffffff1681526020019081526020016000208190555050808061072290610be7565b9150506106a9565b50600067ffffffffffffffff81111561074657610745610c2f565b5b6040519080825280602002602001820160405280156107745781602001602082028036833780820191505090505b506001908051906020019061078a929190610921565b5060003373ffffffffffffffffffffffffffffffffffffffff16476040516107b190610c8f565b60006040518083038185875af1925050503d80600081146107ee576040519150601f19603f3d011682016040523d82523d6000602084013e6107f3565b606091505b5050905080610837576040517f08c379a000000000000000000000000000000000000000000000000000000000815260040161082e90610d01565b60405180910390fd5b5050565b7f000000000000000000000000000000000000000000000000000000000000000081565b6000670de0b6b3a764000061087383610890565b8461087e9190610d8d565b6108889190610dfe565b905092915050565b6000808273ffffffffffffffffffffffffffffffffffffffff1663feaf968c6040518163ffffffff1660e01b815260040160a060405180830381865afa1580156108de573d6000803e3d6000fd5b505050506040513d601f19601f820116820180604052508101906109029190610ebc565b5050509150506402540be400816109199190610f37565b915050919050565b82805482825590600052602060002090810192821561099a579160200282015b828111156109995782518260006101000a81548173ffffffffffffffffffffffffffffffffffffffff021916908373ffffffffffffffffffffffffffffffffffffffff16021790555091602001919060010190610941565b5b5090506109a791906109ab565b5090565b5b808211156109c45760008160009055506001016109ac565b5090565b600073ffffffffffffffffffffffffffffffffffffffff82169050919050565b6000819050919050565b6000610a0d610a08610a03846109c8565b6109e8565b6109c8565b9050919050565b6000610a1f826109f2565b9050919050565b6000610a3182610a14565b9050919050565b610a4181610a26565b82525050565b6000602082019050610a5c6000830184610a38565b92915050565b600080fd5b6000610a72826109c8565b9050919050565b610a8281610a67565b8114610a8d57600080fd5b50565b600081359050610a9f81610a79565b92915050565b600060208284031215610abb57610aba610a62565b5b6000610ac984828501610a90565b91505092915050565b6000819050919050565b610ae581610ad2565b82525050565b6000602082019050610b006000830184610adc565b92915050565b610b0f81610ad2565b8114610b1a57600080fd5b50565b600081359050610b2c81610b06565b92915050565b600060208284031215610b4857610b47610a62565b5b6000610b5684828501610b1d565b91505092915050565b610b6881610a67565b82525050565b6000602082019050610b836000830184610b5f565b92915050565b7f4e487b7100000000000000000000000000000000000000000000000000000000600052603260045260246000fd5b7f4e487b7100000000000000000000000000000000000000000000000000000000600052601160045260246000fd5b6000610bf282610ad2565b91507fffffffffffffffffffffffffffffffffffffffffffffffffffffffffffffffff8203610c2457610c23610bb8565b5b600182019050919050565b7f4e487b7100000000000000000000000000000000000000000000000000000000600052604160045260246000fd5b600081905092915050565b50565b6000610c79600083610c5e565b9150610c8482610c69565b600082019050919050565b6000610c9a82610c6c565b9150819050919050565b600082825260208201905092915050565b7f6572726f72000000000000000000000000000000000000000000000000000000600082015250565b6000610ceb600583610ca4565b9150610cf682610cb5565b602082019050919050565b60006020820190508181036000830152610d1a81610cde565b9050919050565b7f4469646e27742053656e6420456e6f7567682045746800000000000000000000600082015250565b6000610d57601683610ca4565b9150610d6282610d21565b602082019050919050565b60006020820190508181036000830152610d8681610d4a565b9050919050565b6000610d9882610ad2565b9150610da383610ad2565b9250828202610db181610ad2565b91508282048414831517610dc857610dc7610bb8565b5b5092915050565b7f4e487b7100000000000000000000000000000000000000000000000000000000600052601260045260246000fd5b6000610e0982610ad2565b9150610e1483610ad2565b925082610e2457610e23610dcf565b5b828204905092915050565b600069ffffffffffffffffffff82169050919050565b610e4e81610e2f565b8114610e5957600080fd5b50565b600081519050610e6b81610e45565b92915050565b6000819050919050565b610e8481610e71565b8114610e8f57600080fd5b50565b600081519050610ea181610e7b565b92915050565b600081519050610eb681610b06565b92915050565b600080600080600060a08688031215610ed857610ed7610a62565b5b6000610ee688828901610e5c565b9550506020610ef788828901610e92565b9450506040610f0888828901610ea7565b9350506060610f1988828901610ea7565b9250506080610f2a88828901610e5c565b9150509295509295909350565b6000610f4282610e71565b9150610f4d83610e71565b9250828202610f5b81610e71565b91507f80000000000000000000000000000000000000000000000000000000000000008414600084121615610f9357610f92610bb8565b5b8282058414831517610fa857610fa7610bb8565b5b509291505056fea2646970667358221220a62c8e94e2ac308f23a3bbe46a8f846d5127067e7ae32134784a426149689ad564736f6c63430008120033",
  "linkReferences": {},
  "deployedLinkReferences": {}
}