{
  "_format": "hh-sol-artifact-1",
  "contractName": "FundMe",
  "sourceName": "contracts/FundMe.sol",
  "abi": [
    {
      "inputs": [],
      "stateMutability": "nonpayable",
      "type": "constructor"
    },
    {
      "inputs": [],
      "name": "UnAuthorized",
      "type": "error"
    },
    {
      "stateMutability": "payable",
      "type": "fallback"
    },
    {
      "inputs": [],
      "name": "MINIMUM_USD",
      "outputs": [
        {
          "internalType": "uint256",
          "name": "",
          "type": "uint256"
        }
      ],
      "stateMutability": "view",
      "type": "function"
    },
    {
      "inputs": [],
      "name": "Withdraw",
      "outputs": [],
      "stateMutability": "nonpayable",
      "type": "function"
    },
    {
      "inputs": [
        {
          "internalType": "address",
          "name": "",
          "type": "address"
        }
      ],
      "name": "addressToAmountFunded",
      "outputs": [
        {
          "internalType": "uint256",
          "name": "",
          "type": "uint256"
        }
      ],
      "stateMutability": "view",
      "type": "function"
    },
    {
      "inputs": [],
      "name": "fund",
      "outputs": [],
      "stateMutability": "payable",
      "type": "function"
    },
    {
      "inputs": [
        {
          "internalType": "uint256",
          "name": "",
          "type": "uint256"
        }
      ],
      "name": "funders",
      "outputs": [
        {
          "internalType": "address",
          "name": "",
          "type": "address"
        }
      ],
      "stateMutability": "view",
      "type": "function"
    },
    {
      "inputs": [],
      "name": "i_owner",
      "outputs": [
        {
          "internalType": "address",
          "name": "",
          "type": "address"
        }
      ],
      "stateMutability": "view",
      "type": "function"
    },
    {
      "stateMutability": "payable",
      "type": "receive"
    }
  ],
  "bytecode": "0x60a060405234801561001057600080fd5b503373ffffffffffffffffffffffffffffffffffffffff1660808173ffffffffffffffffffffffffffffffffffffffff1681525050608051610c4a6100676000396000818161027a01526104c70152610c4a6000f3fe6080604052600436106100595760003560e01c80633e47d6f31461007257806357ea89b6146100af5780636b69a592146100c6578063b60d4288146100f1578063dba6335f146100fb578063dc0d3dff1461012657610068565b3661006857610066610163565b005b610070610163565b005b34801561007e57600080fd5b506100996004803603810190610094919061070a565b610260565b6040516100a69190610750565b60405180910390f35b3480156100bb57600080fd5b506100c4610278565b005b3480156100d257600080fd5b506100db6104b8565b6040516100e89190610750565b60405180910390f35b6100f9610163565b005b34801561010757600080fd5b506101106104c5565b60405161011d919061077a565b60405180910390f35b34801561013257600080fd5b5061014d600480360381019061014891906107c1565b6104e9565b60405161015a919061077a565b60405180910390f35b6802b5e3af16b188000061017634610528565b10156101b7576040517f08c379a00000000000000000000000000000000000000000000000000000000081526004016101ae9061084b565b60405180910390fd5b6000339080600181540180825580915050600190039060005260206000200160009091909190916101000a81548173ffffffffffffffffffffffffffffffffffffffff021916908373ffffffffffffffffffffffffffffffffffffffff16021790555034600160003373ffffffffffffffffffffffffffffffffffffffff1673ffffffffffffffffffffffffffffffffffffffff16815260200190815260200160002081905550565b60016020528060005260406000206000915090505481565b7f000000000000000000000000000000000000000000000000000000000000000073ffffffffffffffffffffffffffffffffffffffff163373ffffffffffffffffffffffffffffffffffffffff16146102fd576040517fbe24598300000000000000000000000000000000000000000000000000000000815260040160405180910390fd5b60005b6000805490508110156103a85760008082815481106103225761032161086b565b5b9060005260206000200160009054906101000a900473ffffffffffffffffffffffffffffffffffffffff1690506000600160008373ffffffffffffffffffffffffffffffffffffffff1673ffffffffffffffffffffffffffffffffffffffff168152602001908152602001600020819055505080806103a0906108c9565b915050610300565b50600067ffffffffffffffff8111156103c4576103c3610911565b5b6040519080825280602002602001820160405280156103f25781602001602082028036833780820191505090505b5060009080519060200190610408929190610600565b5060003373ffffffffffffffffffffffffffffffffffffffff164760405161042f90610971565b60006040518083038185875af1925050503d806000811461046c576040519150601f19603f3d011682016040523d82523d6000602084013e610471565b606091505b50509050806104b5576040517f08c379a00000000000000000000000000000000000000000000000000000000081526004016104ac906109d2565b60405180910390fd5b50565b6802b5e3af16b188000081565b7f000000000000000000000000000000000000000000000000000000000000000081565b600081815481106104f957600080fd5b906000526020600020016000915054906101000a900473ffffffffffffffffffffffffffffffffffffffff1681565b6000670de0b6b3a764000061053b610557565b8361054691906109f2565b6105509190610a63565b9050919050565b60008073694aa1769357215de4fac081bf1f309adc325306905060008173ffffffffffffffffffffffffffffffffffffffff1663feaf968c6040518163ffffffff1660e01b815260040160a060405180830381865afa1580156105be573d6000803e3d6000fd5b505050506040513d601f19601f820116820180604052508101906105e29190610b21565b5050509150506402540be400816105f99190610b9c565b9250505090565b828054828255906000526020600020908101928215610679579160200282015b828111156106785782518260006101000a81548173ffffffffffffffffffffffffffffffffffffffff021916908373ffffffffffffffffffffffffffffffffffffffff16021790555091602001919060010190610620565b5b509050610686919061068a565b5090565b5b808211156106a357600081600090555060010161068b565b5090565b600080fd5b600073ffffffffffffffffffffffffffffffffffffffff82169050919050565b60006106d7826106ac565b9050919050565b6106e7816106cc565b81146106f257600080fd5b50565b600081359050610704816106de565b92915050565b6000602082840312156107205761071f6106a7565b5b600061072e848285016106f5565b91505092915050565b6000819050919050565b61074a81610737565b82525050565b60006020820190506107656000830184610741565b92915050565b610774816106cc565b82525050565b600060208201905061078f600083018461076b565b92915050565b61079e81610737565b81146107a957600080fd5b50565b6000813590506107bb81610795565b92915050565b6000602082840312156107d7576107d66106a7565b5b60006107e5848285016107ac565b91505092915050565b600082825260208201905092915050565b7f4469646e27742053656e6420456e6f7567680000000000000000000000000000600082015250565b60006108356012836107ee565b9150610840826107ff565b602082019050919050565b6000602082019050818103600083015261086481610828565b9050919050565b7f4e487b7100000000000000000000000000000000000000000000000000000000600052603260045260246000fd5b7f4e487b7100000000000000000000000000000000000000000000000000000000600052601160045260246000fd5b60006108d482610737565b91507fffffffffffffffffffffffffffffffffffffffffffffffffffffffffffffffff82036109065761090561089a565b5b600182019050919050565b7f4e487b7100000000000000000000000000000000000000000000000000000000600052604160045260246000fd5b600081905092915050565b50565b600061095b600083610940565b91506109668261094b565b600082019050919050565b600061097c8261094e565b9150819050919050565b7f6572726f72000000000000000000000000000000000000000000000000000000600082015250565b60006109bc6005836107ee565b91506109c782610986565b602082019050919050565b600060208201905081810360008301526109eb816109af565b9050919050565b60006109fd82610737565b9150610a0883610737565b9250828202610a1681610737565b91508282048414831517610a2d57610a2c61089a565b5b5092915050565b7f4e487b7100000000000000000000000000000000000000000000000000000000600052601260045260246000fd5b6000610a6e82610737565b9150610a7983610737565b925082610a8957610a88610a34565b5b828204905092915050565b600069ffffffffffffffffffff82169050919050565b610ab381610a94565b8114610abe57600080fd5b50565b600081519050610ad081610aaa565b92915050565b6000819050919050565b610ae981610ad6565b8114610af457600080fd5b50565b600081519050610b0681610ae0565b92915050565b600081519050610b1b81610795565b92915050565b600080600080600060a08688031215610b3d57610b3c6106a7565b5b6000610b4b88828901610ac1565b9550506020610b5c88828901610af7565b9450506040610b6d88828901610b0c565b9350506060610b7e88828901610b0c565b9250506080610b8f88828901610ac1565b9150509295509295909350565b6000610ba782610ad6565b9150610bb283610ad6565b9250828202610bc081610ad6565b91507f80000000000000000000000000000000000000000000000000000000000000008414600084121615610bf857610bf761089a565b5b8282058414831517610c0d57610c0c61089a565b5b509291505056fea26469706673582212204ec5696445a869d1c7ca36d31ad62498adf8a0333885ec1be89dbede4b9cbc2964736f6c63430008120033",
  "linkReferences": {},
  "deployedLinkReferences": {}
}