{
  "address": "0x285Ca2aE6F1b7528CE107AE7367DBC44b4C616DB",
  "abi": [
    {
      "inputs": [
        {
          "internalType": "address",
          "name": "_priceFeed",
          "type": "address"
        }
      ],
      "stateMutability": "nonpayable",
      "type": "constructor"
    },
    {
      "inputs": [],
      "name": "UnAuthorized",
      "type": "error"
    },
    {
      "stateMutability": "payable",
      "type": "fallback"
    },
    {
      "inputs": [],
      "name": "MINIMUM_USD",
      "outputs": [
        {
          "internalType": "uint256",
          "name": "",
          "type": "uint256"
        }
      ],
      "stateMutability": "view",
      "type": "function"
    },
    {
      "inputs": [],
      "name": "Withdraw",
      "outputs": [],
      "stateMutability": "nonpayable",
      "type": "function"
    },
    {
      "inputs": [
        {
          "internalType": "address",
          "name": "",
          "type": "address"
        }
      ],
      "name": "addressToAmountFunded",
      "outputs": [
        {
          "internalType": "uint256",
          "name": "",
          "type": "uint256"
        }
      ],
      "stateMutability": "view",
      "type": "function"
    },
    {
      "inputs": [],
      "name": "fund",
      "outputs": [],
      "stateMutability": "payable",
      "type": "function"
    },
    {
      "inputs": [
        {
          "internalType": "uint256",
          "name": "",
          "type": "uint256"
        }
      ],
      "name": "funders",
      "outputs": [
        {
          "internalType": "address",
          "name": "",
          "type": "address"
        }
      ],
      "stateMutability": "view",
      "type": "function"
    },
    {
      "inputs": [],
      "name": "i_owner",
      "outputs": [
        {
          "internalType": "address",
          "name": "",
          "type": "address"
        }
      ],
      "stateMutability": "view",
      "type": "function"
    },
    {
      "inputs": [],
      "name": "priceFeedAddress",
      "outputs": [
        {
          "internalType": "contract AggregatorV3Interface",
          "name": "",
          "type": "address"
        }
      ],
      "stateMutability": "view",
      "type": "function"
    },
    {
      "stateMutability": "payable",
      "type": "receive"
    }
  ],
  "transactionHash": "0xdf226c453455b5507eb825efbfc8dd7d41499079c7ef059a4966f81deb083751",
  "args": [
    "0x694AA1769357215DE4FAC081bf1f309aDC325306"
  ],
  "numDeployments": 2,
  "solcInputHash": "f7f8319572b7f6bb9a0b919006908608",
  "bytecode": "0x60a060405234801561001057600080fd5b50604051610ea1380380610ea18339818101604052810190610032919061010f565b806000806101000a81548173ffffffffffffffffffffffffffffffffffffffff021916908373ffffffffffffffffffffffffffffffffffffffff1602179055503373ffffffffffffffffffffffffffffffffffffffff1660808173ffffffffffffffffffffffffffffffffffffffff16815250505061013c565b600080fd5b600073ffffffffffffffffffffffffffffffffffffffff82169050919050565b60006100dc826100b1565b9050919050565b6100ec816100d1565b81146100f757600080fd5b50565b600081519050610109816100e3565b92915050565b600060208284031215610125576101246100ac565b5b6000610133848285016100fa565b91505092915050565b608051610d4361015e600039600081816102ea01526105380152610d436000f3fe6080604052600436106100745760003560e01c8063b60d42881161004e578063b60d42881461010c578063dba6335f14610116578063dc0d3dff14610141578063e0abca0b1461017e57610083565b80633e47d6f31461008d57806357ea89b6146100ca5780636b69a592146100e157610083565b36610083576100816101a9565b005b61008b6101a9565b005b34801561009957600080fd5b506100b460048036038101906100af9190610789565b6102d0565b6040516100c191906107cf565b60405180910390f35b3480156100d657600080fd5b506100df6102e8565b005b3480156100ed57600080fd5b506100f6610529565b60405161010391906107cf565b60405180910390f35b6101146101a9565b005b34801561012257600080fd5b5061012b610536565b60405161013891906107f9565b60405180910390f35b34801561014d57600080fd5b5061016860048036038101906101639190610840565b61055a565b60405161017591906107f9565b60405180910390f35b34801561018a57600080fd5b50610193610599565b6040516101a091906108cc565b60405180910390f35b6802b5e3af16b18800006101e660008054906101000a900473ffffffffffffffffffffffffffffffffffffffff16346105bd90919063ffffffff16565b1015610227576040517f08c379a000000000000000000000000000000000000000000000000000000000815260040161021e90610944565b60405180910390fd5b6001339080600181540180825580915050600190039060005260206000200160009091909190916101000a81548173ffffffffffffffffffffffffffffffffffffffff021916908373ffffffffffffffffffffffffffffffffffffffff16021790555034600260003373ffffffffffffffffffffffffffffffffffffffff1673ffffffffffffffffffffffffffffffffffffffff16815260200190815260200160002081905550565b60026020528060005260406000206000915090505481565b7f000000000000000000000000000000000000000000000000000000000000000073ffffffffffffffffffffffffffffffffffffffff163373ffffffffffffffffffffffffffffffffffffffff161461036d576040517fbe24598300000000000000000000000000000000000000000000000000000000815260040160405180910390fd5b60005b6001805490508110156104195760006001828154811061039357610392610964565b5b9060005260206000200160009054906101000a900473ffffffffffffffffffffffffffffffffffffffff1690506000600260008373ffffffffffffffffffffffffffffffffffffffff1673ffffffffffffffffffffffffffffffffffffffff16815260200190815260200160002081905550508080610411906109c2565b915050610370565b50600067ffffffffffffffff81111561043557610434610a0a565b5b6040519080825280602002602001820160405280156104635781602001602082028036833780820191505090505b506001908051906020019061047992919061067f565b5060003373ffffffffffffffffffffffffffffffffffffffff16476040516104a090610a6a565b60006040518083038185875af1925050503d80600081146104dd576040519150601f19603f3d011682016040523d82523d6000602084013e6104e2565b606091505b5050905080610526576040517f08c379a000000000000000000000000000000000000000000000000000000000815260040161051d90610acb565b60405180910390fd5b50565b6802b5e3af16b188000081565b7f000000000000000000000000000000000000000000000000000000000000000081565b6001818154811061056a57600080fd5b906000526020600020016000915054906101000a900473ffffffffffffffffffffffffffffffffffffffff1681565b60008054906101000a900473ffffffffffffffffffffffffffffffffffffffff1681565b6000670de0b6b3a76400006105d1836105ee565b846105dc9190610aeb565b6105e69190610b5c565b905092915050565b6000808273ffffffffffffffffffffffffffffffffffffffff1663feaf968c6040518163ffffffff1660e01b815260040160a060405180830381865afa15801561063c573d6000803e3d6000fd5b505050506040513d601f19601f820116820180604052508101906106609190610c1a565b5050509150506402540be400816106779190610c95565b915050919050565b8280548282559060005260206000209081019282156106f8579160200282015b828111156106f75782518260006101000a81548173ffffffffffffffffffffffffffffffffffffffff021916908373ffffffffffffffffffffffffffffffffffffffff1602179055509160200191906001019061069f565b5b5090506107059190610709565b5090565b5b8082111561072257600081600090555060010161070a565b5090565b600080fd5b600073ffffffffffffffffffffffffffffffffffffffff82169050919050565b60006107568261072b565b9050919050565b6107668161074b565b811461077157600080fd5b50565b6000813590506107838161075d565b92915050565b60006020828403121561079f5761079e610726565b5b60006107ad84828501610774565b91505092915050565b6000819050919050565b6107c9816107b6565b82525050565b60006020820190506107e460008301846107c0565b92915050565b6107f38161074b565b82525050565b600060208201905061080e60008301846107ea565b92915050565b61081d816107b6565b811461082857600080fd5b50565b60008135905061083a81610814565b92915050565b60006020828403121561085657610855610726565b5b60006108648482850161082b565b91505092915050565b6000819050919050565b600061089261088d6108888461072b565b61086d565b61072b565b9050919050565b60006108a482610877565b9050919050565b60006108b682610899565b9050919050565b6108c6816108ab565b82525050565b60006020820190506108e160008301846108bd565b92915050565b600082825260208201905092915050565b7f4469646e27742053656e6420456e6f7567680000000000000000000000000000600082015250565b600061092e6012836108e7565b9150610939826108f8565b602082019050919050565b6000602082019050818103600083015261095d81610921565b9050919050565b7f4e487b7100000000000000000000000000000000000000000000000000000000600052603260045260246000fd5b7f4e487b7100000000000000000000000000000000000000000000000000000000600052601160045260246000fd5b60006109cd826107b6565b91507fffffffffffffffffffffffffffffffffffffffffffffffffffffffffffffffff82036109ff576109fe610993565b5b600182019050919050565b7f4e487b7100000000000000000000000000000000000000000000000000000000600052604160045260246000fd5b600081905092915050565b50565b6000610a54600083610a39565b9150610a5f82610a44565b600082019050919050565b6000610a7582610a47565b9150819050919050565b7f6572726f72000000000000000000000000000000000000000000000000000000600082015250565b6000610ab56005836108e7565b9150610ac082610a7f565b602082019050919050565b60006020820190508181036000830152610ae481610aa8565b9050919050565b6000610af6826107b6565b9150610b01836107b6565b9250828202610b0f816107b6565b91508282048414831517610b2657610b25610993565b5b5092915050565b7f4e487b7100000000000000000000000000000000000000000000000000000000600052601260045260246000fd5b6000610b67826107b6565b9150610b72836107b6565b925082610b8257610b81610b2d565b5b828204905092915050565b600069ffffffffffffffffffff82169050919050565b610bac81610b8d565b8114610bb757600080fd5b50565b600081519050610bc981610ba3565b92915050565b6000819050919050565b610be281610bcf565b8114610bed57600080fd5b50565b600081519050610bff81610bd9565b92915050565b600081519050610c1481610814565b92915050565b600080600080600060a08688031215610c3657610c35610726565b5b6000610c4488828901610bba565b9550506020610c5588828901610bf0565b9450506040610c6688828901610c05565b9350506060610c7788828901610c05565b9250506080610c8888828901610bba565b9150509295509295909350565b6000610ca082610bcf565b9150610cab83610bcf565b9250828202610cb981610bcf565b91507f80000000000000000000000000000000000000000000000000000000000000008414600084121615610cf157610cf0610993565b5b8282058414831517610d0657610d05610993565b5b509291505056fea2646970667358221220400b9c6edf9c3845cb36173ceee9586d6e731f9adabbc52dcf8bcb4c681b35f364736f6c63430008120033",
  "devdoc": {
    "kind": "dev",
    "methods": {},
    "version": 1
  },
  "userdoc": {
    "kind": "user",
    "methods": {},
    "version": 1
  },
  "storageLayout": {
    "storage": [
      {
        "astId": 58,
        "contract": "contracts/FundMe.sol:FundMe",
        "label": "priceFeedAddress",
        "offset": 0,
        "slot": "0",
        "type": "t_contract(AggregatorV3Interface)45"
      },
      {
        "astId": 97,
        "contract": "contracts/FundMe.sol:FundMe",
        "label": "funders",
        "offset": 0,
        "slot": "1",
        "type": "t_array(t_address)dyn_storage"
      },
      {
        "astId": 101,
        "contract": "contracts/FundMe.sol:FundMe",
        "label": "addressToAmountFunded",
        "offset": 0,
        "slot": "2",
        "type": "t_mapping(t_address,t_uint256)"
      }
    ],
    "types": {
      "t_address": {
        "encoding": "inplace",
        "label": "address",
        "numberOfBytes": "20"
      },
      "t_array(t_address)dyn_storage": {
        "base": "t_address",
        "encoding": "dynamic_array",
        "label": "address[]",
        "numberOfBytes": "32"
      },
      "t_contract(AggregatorV3Interface)45": {
        "encoding": "inplace",
        "label": "contract AggregatorV3Interface",
        "numberOfBytes": "20"
      },
      "t_mapping(t_address,t_uint256)": {
        "encoding": "mapping",
        "key": "t_address",
        "label": "mapping(address => uint256)",
        "numberOfBytes": "32",
        "value": "t_uint256"
      },
      "t_uint256": {
        "encoding": "inplace",
        "label": "uint256",
        "numberOfBytes": "32"
      }
    }
  }
}